{
  "contractName": "Faucet",
  "abi": [
    {
      "constant": false,
      "inputs": [],
      "name": "destroy",
      "outputs": [],
      "payable": false,
      "stateMutability": "nonpayable",
      "type": "function"
    },
    {
      "payable": true,
      "stateMutability": "payable",
      "type": "fallback"
    },
    {
      "anonymous": false,
      "inputs": [
        {
          "indexed": true,
          "name": "to",
          "type": "address"
        },
        {
          "indexed": false,
          "name": "amount",
          "type": "uint256"
        }
      ],
      "name": "Withdrawal",
      "type": "event"
    },
    {
      "anonymous": false,
      "inputs": [
        {
          "indexed": true,
          "name": "from",
          "type": "address"
        },
        {
          "indexed": false,
          "name": "amount",
          "type": "uint256"
        }
      ],
      "name": "Deposit",
      "type": "event"
    },
    {
      "constant": false,
      "inputs": [
        {
          "name": "withdraw_amount",
          "type": "uint256"
        }
      ],
      "name": "withdraw",
      "outputs": [],
      "payable": false,
      "stateMutability": "nonpayable",
      "type": "function"
    }
  ],
  "bytecode": "0x6080604052336000806101000a81548173ffffffffffffffffffffffffffffffffffffffff021916908373ffffffffffffffffffffffffffffffffffffffff160217905550610394806100536000396000f30060806040526004361061004c576000357c0100000000000000000000000000000000000000000000000000000000900463ffffffff1680632e1a7d4d1461009c57806383197ef0146100c9575b3373ffffffffffffffffffffffffffffffffffffffff167fe1fffcc4923d04b559f4d29a8bfc6cda04eb5b0d3c460751c2402c5c5cc9109c346040518082815260200191505060405180910390a2005b3480156100a857600080fd5b506100c7600480360381019080803590602001909291905050506100e0565b005b3480156100d557600080fd5b506100de610244565b005b67016345785d8a000081111515156100f757600080fd5b803073ffffffffffffffffffffffffffffffffffffffff1631101515156101ac576040517f08c379a00000000000000000000000000000000000000000000000000000000081526004018080602001828103825260348152602001807f496e737566666963656e742062616c616e636520696e2066617563657420666f81526020017f72207769746864726177616c207265717565737400000000000000000000000081525060400191505060405180910390fd5b3373ffffffffffffffffffffffffffffffffffffffff166108fc829081150290604051600060405180830381858888f193505050501580156101f2573d6000803e3d6000fd5b503373ffffffffffffffffffffffffffffffffffffffff167f7fcf532c15f0a6db0bd6d0e038bea71d30d808c7d98cb3bf7268a95bf5081b65826040518082815260200191505060405180910390a250565b6000809054906101000a900473ffffffffffffffffffffffffffffffffffffffff1673ffffffffffffffffffffffffffffffffffffffff163373ffffffffffffffffffffffffffffffffffffffff1614151561032e576040517f08c379a000000000000000000000000000000000000000000000000000000000815260040180806020018281038252602f8152602001807f4f6e6c792074686520636f6e7472616374206f776e65722063616e2063616c6c81526020017f20746869732066756e6374696f6e2e000000000000000000000000000000000081525060400191505060405180910390fd5b6000809054906101000a900473ffffffffffffffffffffffffffffffffffffffff1673ffffffffffffffffffffffffffffffffffffffff16ff00a165627a7a72305820eddbe93f83421bb9b5058a623f6260500d155f1438df6e0f1d07bde3fa118d950029",
  "source": "pragma solidity ^0.4.22;\r\n\r\ncontract  owned {\r\n\r\n  address owner;\r\n  // 컨트랙트 생성자\r\n  constructor() {\r\n    owner = msg.sender;\r\n  }\r\n  //변경자 접근 제어\r\n  modifier onlyOwner {\r\n    require(msg.sender == owner,\r\n            \"Only the contract owner can call this function.\");\r\n    _;\r\n  }\r\n}\r\n\r\ncontract mortal is owned {\r\n\r\n  function destroy() public onlyOwner {\r\n    selfdestruct(owner);\r\n  }\r\n}\r\n\r\ncontract Faucet is mortal {\r\n  event Withdrawal(address indexed to, uint amount);\r\n  event Deposit(address indexed from, uint amount);\r\n\r\n  function withdraw(uint withdraw_amount) public {\r\n    require (withdraw_amount <= 0.1 ether);\r\n    require (this.balance >= withdraw_amount,\r\n      \"Insufficent balance in faucet for withdrawal request\");\r\n\r\n    msg.sender.transfer(withdraw_amount);\r\n    emit Withdrawal(msg.sender, withdraw_amount);\r\n  }\r\n\r\n  function () public payable {\r\n    emit Deposit(msg.sender, msg.value);\r\n  }\r\n}\r\n",
  "sourcePath": "C:/Solidity/Learning/contracts/Faucet.sol",
  "compiler": {
    "name": "solc",
    "version": "0.4.22+commit.4cb486ee.Emscripten.clang"
  },
  "schemaVersion": "3.3.4",
  "updatedAt": "2021-04-17T10:01:42.279Z",
  "networkType": "ethereum",
  "devdoc": {
    "methods": {}
  },
  "userdoc": {
    "methods": {}
  }
}